:1000000000308A00D42B0000FF00030E8301A10002
:100010000A08A0008A010408A2007708A300780853
:10002000A4007908A5007A08A6007B08A70083131E
:1000300083128C308400001F1F280C1B32282208DA
:1000400084002308F7002408F8002508F900260892
:10005000FA002708FB0020088A00210E8300FF0E0B
:100060007F0E09008A110A12CA280A108A100A1182
:10007000820728340C34013406340A108A100A111D
:1000800082070C3420344134443443342034413426
:10009000503450344C34493443344134543449346A
:1000A0004F344E34203400340A108A100A1182076B
:1000B0000C342D342D344334683461346E346E3452
:1000C00065346C34203441344E3430342D342D3486
:1000D00000340A108A100A1182070C342034443488
:1000E000693467346934743461346C343D34253494
:1000F0006C34753400340A108A100A1182070A34ED
:10010000203456346F346C3474346134673465345D
:100110003D34253430342E34323466345634003491
:100120000A108A100A1182070C342D342D344334FE
:10013000683461346E346E3465346C342034413448
:100140004E3431342D342D3400340A108A100A1103
:1001500082070C344434693467346934743461344C
:100160006C343D3425346C34753400340A108A10F4
:100170000A1182070A3456346F346C347434613493
:10018000673465343D34253430342E3432346634AB
:1001900056340034A901A8012908273C031CE02893
:1001A000031DD6282808103C031CE0282A102A0822
:1001B0008316870083120714A80A0319A90ACC28FA
:1001C000A901A8012908273C031CF628031DEC28D7
:1001D0002808103C031CF6282A102A0883168700DA
:1001E00083120710A80A0319A90AE2280C138A111E
:1001F0000A121F28403084008313000803190E29B7
:100200000130F800F701F70B0329F80B02294A30F7
:10021000F700F70B09290C29800B00290034470E41
:10022000F039F7000F300605770486000000061449
:100230001929061000348610F030831686008312C8
:1002400006150000061400000608060E0F39C70048
:1002500006100000061400000608060E0F39C6003E
:1002600006100030831686008312470EF700F03028
:10027000F70577084604F8007808C600C61B1C2955
:10028000441C861044188614000006110000061055
:10029000450EC6000F30C6054608C7000F214508A9
:1002A0000F39C600C7000F210034003083168600C6
:1002B00083128610061106100F30C000FA2001309C
:1002C000B1003108033C031C6D290330C7000F2126
:1002D0000530C000FA20B10A61290230C7000F21A1
:1002E000B1013108033C031C7E2931083520B200DE
:1002F000C4013208C5001B21B10A71298A110A12F2
:10030000FE2B3F080C3A03198C29063A031994294D
:10031000023A0319AA29AF29C4010130C5001B21E3
:100320000230C000FA20B5290130C0000230C100FF
:10033000410B9B299E294030C2009F29C2010130F8
:100340004002C20742088038C300C4014308C50008
:100350001B21B529C4011030C5001B21B52901306E
:10036000C4003F08C5001B21B52900348E30F700BA
:100370003208F8003108F900FA01F808031DCA290B
:100380007908F800F9010830F702F808031DCA29B6
:10039000F701D2290310F81BD129F90DF80DF70345
:1003A000CA29F81300343F080319432AC700430839
:1003B0000319432AC7070318E4297F30C702031C27
:1003C000432A0319432AE8298130C7070318432A1F
:1003D0004708F700F801F901FA014008CB00CB17F4
:1003E0004108CA004208C9001830C700C801491CAA
:1003F000112A4608FA07031C032AF90A031D032AD7
:10040000F80A0319C8174508F907031C0A2AF80A4D
:100410000319C8174408C100C1174108F807031899
:10042000C817C80DF80CF90CFA0CCB0CCA0CC90C87
:100430000310C70BF6290130F7070318432AF81BEE
:10044000282ACB0DFA0DF90DF80DF7030319432AED
:10045000CB1F392AFA0A031D392AF90A031D392A42
:10046000F80A031D392AF80CF90CFA0CF70A0319DB
:10047000432A4008C8004408C806C81F412AF81784
:10048000472AF813472AF701F801F901FA01003465
:10049000BA010408B9003A10831B3A14330EF0383D
:1004A000B500B507E23EB600323EB80033080F395A
:1004B000B607B607B807E93EB700B707B707320E69
:1004C0000F39B707B807B70DB80DB809B80D32081E
:1004D0000F39B807B50D0730B4000A30B807B703B5
:1004E000031C6E2AB707B603031C722AB607B503AE
:1004F000031C762AB507B403031C7A2A343084001F
:10050000831307303905391384073830040203197F
:1005100039170008F700031D952A391B952A391A47
:10052000A72AB919952A2030982AB91539123030DE
:10053000F707B3010408B2003310831B33147708A4
:10054000BF00812132088400831333188317840A83
:10055000391F852A0034F701F801F901FA01C701B2
:10056000C801C901CA0146084504440443040319EB
:10057000E92A2030CB000310BF0DC00DC10DC20D04
:10058000C70DC80DC90DCA0D46084A02031DD22A5F
:1005900045084902031DD22A44084802031DD22AF5
:1005A00043084702031CE32A4308C7024408031C0C
:1005B000440FC8024508031C450FC9024608031C26
:1005C000460FCA020314F70DF80DF90DFA0DCB0B07
:1005D000BB2A47308400831300340408B700360870
:1005E000B90003190C2B3508C2003408C1003308C8
:1005F000C0003208BF00C601C5012030C4008230EF
:10060000C300D3217A08B5007908B4007808B30094
:100610007708B200B90BF32A3508C2003408C100CC
:100620003308C0003208BF003F08B63CBF00FA01E3
:100630004008C300C0170310C00CC10CC20CFA0C58
:10064000F90CF80CF70CBF0B1B2BC31F322BF7094F
:10065000F809F909FA09F70A0319F80A0319F90A56
:100660000319FA0A7A08B5007908B4007808B300CB
:100670007708B200B51F492BB703B716B209B30903
:10068000B409B509B20A0319B30A0319B40A031964
:10069000B50A3B30BE009A30BD00CA30BC00BB0179
:1006A0000A30B90036080319B70A3508C200340801
:1006B000C1003308C0003208BF003E08C6003D0834
:1006C000C5003C08C4003B08C300AB220008B200D0
:1006D000840A0008B300840A0008B400840A0008F1
:1006E000B500FD308407F708031D892B360A39024F
:1006F0000319892B370803198B2B0F39390203197A
:10070000832B0318BB2BB71BBB2B371B8B2B20302A
:10071000B72B2030B705B71E992BB7123608031D2B
:10072000B7037708B7002D30BF0081213708F700E5
:10073000B70136083902031DA72B7708B7002E3002
:10074000BF0081213708F7002030B7050030303076
:10075000B71EB72BB7123608031DB7037708B700CB
:100760002D30BF0081213708F700B7013030F7077F
:100770007708BF0081213E08C2003D08C1003C0847
:10078000C0003B08BF00C601C501C4010A30C30058
:10079000AB227A08BE007908BD007808BC00770853
:1007A000BB00B90B552B0034840183131F30830524
:1007B00083161F149F141F159F11FF308312AA0068
:1007C0000F3083168500003087008312AA00AA002C
:1007D000831687018312870183161F109F101F1530
:1007E0009F1183121F179F1783169F1783121F14C1
:1007F00083160C17C03083128B045529B1013108C0
:100800003D20B10AF700BF00812112303102031DE3
:10081000FF2B0230B100FA30C000FA20B10B0B2CD4
:100820000030F8001F08C73978049F000630F70031
:10083000F70B182C00001F151F191C2C83161E08FF
:100840008312AB001E08AC002C08B2002B08B100CC
:10085000B621C201C1012030C0007730BF007A0844
:10086000C6007908C5007808C4007708C300D32102
:100870007A08B0007908AF007808AE007708AD00BC
:10088000B10131085420B10AF700BF0081211030B6
:100890003102031D412C0630B100FA30C000FA20AD
:1008A000B10B4D2CB10131086920B10AF700BF002E
:1008B00081210A303102031D532C103084002C0892
:1008C000B3002B08B2004822B10131087B20B10AE5
:1008D000F700BF0081210A303102031D652CC930A9
:1008E00084003008B5002F08B4002E08B3002D088E
:1008F000B2000230B600ED225630BF008121083030
:10090000B100FA30C000FA20B10B812C0830F80099
:100910001F08C73978049F000630F700F70B8E2CAC
:1009200000001F151F19922C83161E088312AB009E
:100930001E08AC002C08B2002B08B100B621C20181
:10094000C1012030C0007730BF007A08C6007908A6
:10095000C5007808C4007708C300D3217A08B00026
:100960007908AF007808AE007708AD00B101310812
:100970009020B10AF700BF00812110303102031D21
:10098000B72C0630B100FA30C000FA20B10BC32CEE
:10099000B1013108A520B10AF700BF00812109305B
:1009A0003102031DC92C103084002C08B3002B0821
:1009B000B2004822B1013108B620B10AF700BF00E9
:1009C000812109303102031DDB2CC930840030083D
:1009D000B5002F08B4002E08B3002D08B200023075
:1009E000B600ED225630BF0081210830B100FA3048
:0C09F000C000FA20B10BF72C102C6300A3
:02400E00393F38
:00000001FF
;PIC16F877
;CRC=46A3  CREATED="23-Kas-22 21:54"
